:020000040040BA
:10000000700A40204D03400049034000490340006E
:10001000490340004903400049034000000000003C
:100020000000000000000000000000004903400044
:10003000490340000000000049034000490340001C
:100040004903400049034000490340004903400080
:100050004903400049034000490340004903400070
:1000600049034000000000004903400049034000EC
:100070004903400049034000490340004903400050
:100080004903400049034000490340004903400040
:10009000490340004903400049034000A9014000D2
:1000A0004903400049034000490340004903400020
:1000B0004903400049034000490340004903400010
:1000C0004903400049034000490340004903400000
:1000D00049034000490340004903400049034000F0
:1000E00049034000490340004903400049034000E0
:1000F00049034000490340004903400049034000D0
:1001000049034000490340004903400049034000BF
:1001100049034000490340000000000000000000C7
:10012000490340004903400049034000490340009F
:10013000490340004903400049034000490340008F
:10014000490340004903400049034000490340007F
:10015000490340004903400049034000490340006F
:10016000490340004903400010B5054C237833B9DA
:10017000044B13B10448AFF300800123237010BD7A
:100180002C044020000000000C05400008B5034B83
:100190001BB103490348AFF3008008BD0000000015
:1001A000300440200C054000074B1B6ADB0609D5D4
:1001B000064B9A6B12F4000F4FF4000201D05A6301
:1001C00070471A63704700BF00C00040000E0E4029
:1001D0004F4B4FF40042F0B5A3F54563C3F8542CE0
:1001E0004C4A1A604C4A136843F0254343F0080315
:1001F00013604A4B4A4A1A629A6ED107FCD5494AA3
:100200001A629A6ED203FCD5474A9A629A6E970791
:10021000FCD540F201121A639A6E1607FCD54FF412
:1002200081721A639A6E1507FCD540494FF4473224
:10023000142005251A611024D1F8142142F010026F
:10024000C1F814214FF40001394A196150604FF48C
:100250008040D061156054621560364A1160364A9C
:10026000116F21431167516F214351673349546026
:100270000A6F22F400120A674A6F22F400124A67DA
:100280004FF400124A60186150232D4A2D48136024
:100290004FF40C635360512313620B46114610F860
:1002A000012B6ABB4FF4000141F288354FF47A7C90
:1002B0001F4E19604FF0050E19612E2759634FF438
:1002C00000711F4C1960596159661146D86B10F4C2
:1002D000007F1AD1A942F9D80131A942F6D192F092
:1002E000010214BF4FF448104FF47A00B0FBFCF049
:1002F000F061C6F800E060698005FCD5E761E5E7DC
:100300004C69A405FCD5CA61C9E70021DEE700BF3E
:1003100050180E400005000410180E4000060E4054
:100320000908370009083701013F182000800840FC
:1003300000C0004000E100E000100E40000E0E4042
:1003400000800240D0044000FEE700000F4A08B5DC
:100350000F4B9A4202D00F498B420ED30E4B002115
:100360000E4A93420ED30E4B0E4A23F07F03936046
:1003700000F01AF8FFF72CFFFEE752F8040B43F8E1
:10038000040BE9E743F8041BEBE700BF0C05400052
:10039000000040202C0440202C0440206C0440200D
:1003A0000000400000ED00E070B50D4E0D4D761BD5
:1003B000B61006D0002455F8043B01349847A642F5
:1003C000F9D1094E094D761B00F08EF8B61006D013
:1003D000002455F8043B01349847A642F9D170BD7A
:1003E000F4044000F4044000FC044000F404400025
:1003F000024B13B1024800F005B87047000000003E
:1004000011044000002301461A46184600F01AB8AD
:1004100038B5084B084D5B1B9C1007D0043B1D44AE
:10042000013C55F804399847002CF9D1BDE8384013
:1004300000F064B80C05400008054000704700BF9C
:10044000704700BF2DE9F047DFF880A00646DAF8D4
:10045000000098460F469146FFF7F0FF1A4B1B68C5
:10046000D3F8484124B365681F2D26DC5EB9AB1C68
:100470000135DAF80000656044F82370FFF7E0FF0B
:100480000020BDE8F08704EB85030121C3F88890C4
:10049000D4F88821A9400A43022EC4F88821C3F861
:1004A0000881E4D1D4F88C311943C4F88C11DEE70B
:1004B00003F5A674C3F84841D5E7DAF80000FFF762
:1004C000BFFF4FF0FF30DCE7E40440002804402089
:1004D0000D0A48656C6C6F2C20776F726C64210D6F
:1004E0000A00000000004020F8B500BFF8BC08BCBE
:1004F0009E467047F10340008D014000F8B500BFF3
:0C050000F8BC08BC9E4670476901400032
:10050C0000000000EC02402054034020BC034020BB
:10051C0000000000000000000000000000000000CF
:10052C0000000000000000000000000000000000BF
:10053C0000000000000000000000000000000000AF
:10054C00000000000000000000000000000000009F
:10055C00000000000000000000000000000000008F
:10056C00000000000000000000000000000000007F
:10057C00000000000000000000000000000000006F
:10058C00000000000000000000000000000000005F
:10059C00000000000000000000000000000000004F
:1005AC00000000000000000001000000000000003E
:1005BC000E33CDAB34126DE6ECDE05000B00000003
:1005CC00000000000000000000000000000000001F
:1005DC00000000000000000000000000000000000F
:1005EC0000000000000000000000000000000000FF
:1005FC0000000000000000000000000000000000EF
:0C092C0000000000000000004804402013
:0400000500400000B7
:00000001FF
